S013000057694669204D6F64756C652E737265631C
S113000012C02CC02BC02AC029C028C027C026C0BB
S113001025C024C023C022C021C020C01FC01EC0D0
S11300201DC01CC01BC011241FBECFE5D4E0DEBF21
S1130030CDBF11E0A0E6B0E0E2E6F2E002C0059038
S11300400D92AA31B107D9F721E0AAE1B1E001C0CC
S11300501D92AA31B207E1F75DD001C1D1CF1BB81F
S113006010BC88E089B988E18AB986E880BD089522
S11300705D9BFECF8CB90895CF93DF93EC0188810B
S1130080882329F02196F4DF89918111FCCF2FEF89
S113009081EE94E0215080409040E1F700C00000E0
S11300A0DF91CF910895CF93DF93282F39E2839F77
S11300B0312D112432953F704CE94303C0011124C2
S11300C0820F911D6AE070E0A3D0D62F205DC22F6D
S11300D0349FC00D112480E3830FCADF80E38D0FAA
S11300E0C7DFDD0F8D2F880F880FD80F8C2F8D1B46
S11300F0BFDFDF91CF91089590E697B997B1892B2F
S113010087B9369A8FE99FE00197F1F700C00000A4
S113011085B1089514BAA3DF86E886B92FEF33EDCD
S113012080E3215030408040E1F700C0000080E6C9
S113013090E0A2DF9FEF2BE732E99150204030405E
S1130140E1F700C000008EE690E096DF8FEF93EDBC
S113015020E3815090402040E1F700C0000082E895
S113016090E08ADF3FEF83E294EF3150804090408B
S1130170E1F700C000002FEF33E284EF215030405C
S11301808040E1F700C000009FEF23E234EF91507C
S113019020403040E1F700C0000080E0ADDFC82F10
S11301A082EA90E069DF8FEF9BE722E9815090407B
S11301B02040E1F700C000008EEC90E05DDF3FEFEF
S11301C081EE94E0315080409040E1F700C000009F
S11301D08EED90E051DF8C2F66DF8FE990E04CDFED
S11301E02FEF31EE84E0215030408040E1F700C031
S11301F000008BE091E040DF9FEF23E234EF80E0EA
S11302009150204030408040D9F700C00000C5CF55
S113021097FB072E16F4009406D077FD08D00BD078
S113022007FC05D03EF4909581959F4F08957095F5
S113023061957F4F0895AA1BBB1B51E107C0AA1FFC
S1130240BB1FA617B70710F0A61BB70B881F991F73
S11302505A95A9F780959095BC01CD010895F8941D
S1050260FFCFCA
S113026241542B43574D4F44453D310D0A004154EF
S11302722B43494F424155443D3131353230300DE3
S11302820A0041542B43574A41503D224D61646454
S113029279222C2239373137303031303630220D41
S11302A20A0041542B43495053544152543D225461
S11302B24350222C226170692E7468696E677370D0
S11302C265616B2E636F6D222C38300D0A00415428
S11302D22B43495053454E443D35310D0A004745A1
S11302E254202F7570646174653F6170695F6B653A
S11302F2793D5A454656303038364257394435509E
S11303024555266669656C64313D0041542B434969
S10D031250434C4F53450D0A000000
S9030000FC
