S01A0000426C696E6B696E674C45445061747465726E2E7372656329
S113000012C019C018C017C016C015C014C013C040
S113001012C011C010C00FC00EC00DC00CC00BC068
S11300200AC009C008C011241FBECFE5D4E0DEBF5A
S1130030CDBF02D033C0E4CF8FE087BB8FEF84BB4A
S1130040E0E0F0E060EF70E0AFEF9F0180E090E06F
S1130050AB01082E02C0559547950A94E2F748BBB8
S11300604FE75AE1B6E041505040B040E1F700C0DC
S113007000002F5F3F4F20FD0BC0A5BB4FE75AE1A7
S1130080B6E041505040B040E1F700C0000015BA5E
S1130090019685309105E1F63596D7CFF894FFCFD8
S9030000FC
